:020000041000EA
:1000000000B5324B212058609868022188439860DF
:10001000D860186158612E4B002199600221596106
:100020000121F02299502B49196001219960352056
:1000300000F044F80222904214D00621196600F024
:1000400034F8196E01211966002018661A6600F04E
:100050002CF8196E196E196E052000F02FF8012189
:100060000842F9D1002199601B49196000215960AB
:100070001A491B48016001219960EB211966A021F2
:10008000196600F012F800219960164914480160C1
:100090000121996001BC002800D000471248134993
:1000A000086003C880F30888084703B5996A0420EC
:1000B0000142FBD001200142F8D103BD02B5186610
:1000C0001866FFF7F2FF186E186E02BD00000240BE
:1000D000000000180000070000035F00212200005C
:1000E000F4000018222000A00001001008ED00E03C
:1000F00000000000000000000000000074B24E7A12
:1001000000200420F7010010C3010010C5010010F9
:10011000C1010010C1010010C1010010C101001097
:10012000C1010010C1010010C1010010C701001081
:10013000C1010010C1010010C9010010CB01001065
:10014000CD010010CD010010CD010010CD01001037
:10015000CD010010CD010010CD010010CD01001027
:10016000CD010010CD010010CD010010CD01001017
:10017000CD010010CD010010CD010010CD01001007
:10018000CD010010CD010010CD010010CD010010F7
:10019000CD010010CD010010CD010010CD010010E7
:1001A000CD010010CD010010CD010010CD010010D7
:1001B000CD010010CD010010CD010010CD010010C7
:1001C00000BE00BE00BE00BE00BE00BEEFF3058054
:1001D000103800BEF2EB8871B8470010E4470010F9
:1001E0003402001090A31AE700201F49086006C8D7
:1001F00081F3088810471D48006800282FD10DA4FE
:100200000ECC002902D000F012F8F9E71849194A7B
:10021000002000E001C19142FCD1174988471749ED
:1002200088471749884700BEFDE701C901C29A42C5
:10023000FBD37047E4470010C0000020340B0020BF
:1002400058520010000004200000042058520010F2
:10025000001004200010042000000000704709482E
:1002600002F0D0FA0047000008ED00E0000000D0E6
:10027000380B0020781000201926001065040010AB
:10028000452700105756000006005250ABB360538C
:100290004046001006005250861C030250460010D3
:1002A000060052505422A29D5C4600100500525098
:1002B000DE65F46858520010F8B5C046054B064894
:1002C000033310B51B1A062B03D9044B002B00D0A7
:1002D000984710BD340B0020340B002000000000B4
:1002E0000648074910B5091A8910CB0F591849104B
:1002F00003D0044B002B00D0984710BD340B0020D6
:10030000340B00200000000010B5074C2378002BB0
:1003100009D1FFF7D3FF054B002B02D0044800E0C2
:1003200000BF0123237010BD380C00200000000026
:1003300040430010094B10B5002B03D00849094871
:1003400000E000BF08480368002B02D1FFF7C8FF98
:1003500010BD064B002BF9D09847F7E700000000CE
:100360003C0C002040430010340B00200000000033
:10037000F0B54746CE4680B58BB003AC2200104B9B
:10038000802723CB23C223CB23C21B8800261380C4
:1003900026236B4499460B4B02AD984623782F7069
:1003A0006B702A00009602233C214046013402F083
:1003B0007DFE4C45F2D10BB00CBC90469946F0BD89
:1003C00040430010C8020020F0B557464E4645464F
:1003D000DE462123E0B587B004AE33700B78834648
:1003E00073704B788A46B3702223F3708B780024A5
:1003F0003371CB781A4F7371802399460023984646
:1004000003AD335D4A466B7043462A703C2100932E
:100410002A0002233800013402F048FE062CF0D1F5
:1004200053465E68751C280002F0EEFA4023040073
:10043000037032005946013002F00AFB43462200A5
:1004400000933C212B00380002F030FE200002F027
:10045000EDFA07B03CBC90469946A246AB46F0BDCB
:10046000C8020020F0B5DE4657464E464546E0B588
:10047000C44C8025A54402F0B7FCC34802F0D2FB6F
:10048000C249C34802F090FD0321042000F07CFB28
:100490000321052000F078FB00220121042000F058
:1004A0008BFB00220121052000F086FBFFF760FF97
:1004B000082200210CA802F0C5FA7F2308AA537471
:1004C0007C3BD37480220021920018A80D9202F088
:1004D000B9FA0CA918A8FFF777FF10AB0324A527DA
:1004E0001E000993002332003C2135707770984636
:1004F0000093A748023302F0D9FDFA20400001F032
:1005000047F8A423737043463570320000933C21B2
:1005100002339F4802F0CAFDFA20013C400001F07E
:1005200037F8002CDED100252227212208AB1A76CD
:100530005D762B0008AA19339376D7761300002234
:100540001A7703230024802608AA5377182208ABC1
:100550009B181B5D08AA5373002316733C2100935C
:100560000BAA02338A48013402F0A0FD062CEDD11B
:10057000692002F049FA402304000370682285498B
:10058000013002F065FA0023220000933C21693318
:100590007F481F3502F08AFDEDB2200002F046FAD6
:1005A0005D2DC2D1262300240E937B4B23350F9360
:1005B000182208AB9B181B5D08AA53730023157300
:1005C0003C2100930BAA02337148013402F06EFD06
:1005D000082CEDD1714800F0DBFF26230024802594
:1005E0000E936F4B0F93182208AB9B181B5D08AA44
:1005F0005373002315733C2100930BAA0233644804
:10060000013402F053FD082CEDD1664B099A1C33DE
:1006100013CB13C213CB13C203CB03C2624B94247C
:100620001B683322069310AB0893099300235520CF
:10063000089905936400059E096833B28C46182E0C
:1006400000DDBBE061460F78002F00D1B6E0DB1083
:10065000DB01079366460523BC466CE0782B64DC1F
:10066000032506996144497829406546022900D14D
:1006700086E0E9B20F00413F192F79D8FF210D40E4
:10068000403DED00691C8A46A91C8946E91C884644
:10069000291D8C46691D0291A91D0391E91D049134
:1006A00098AFBB460799414F59185944BB46404F34
:1006B0008B447D5D5F463D703E4D3D4FAB4655469C
:1006C0008B447D5D5F463D700D00FF3DFF3DAA46BA
:1006D0004D46374F7D5D57463D700D00FE3DFF3D59
:1006E000A9464546324F7D5D4F463D700D00FD3DAC
:1006F000FF3DA84665462E4F7D5D47463D700D0087
:10070000FC3DFF3DAC462A4F029DFA397F5D6546B0
:100710002F700135AC46264F039DFF397F5D65463E
:100720002F70234D049FED5D0D70317808331BB29F
:100730008C46002942D01E490136097800298DD106
:1007400000271D49C95D0D0909010D43EDB2A9102E
:10075000AD00954311402943C9B24D1049000540F1
:1007600081432943124DE9550137A742E9D175E785
:100770003039092900D9EAE1FF210D40153D80E714
:10078000203D76E79CFDFFFFB8440010801A06006C
:10079000C8020020B00100200300FF2F88130000D2
:1007A0000300FF2E40430010D002002000FEFFFF98
:1007B000280D002001FEFFFF90430010059B0899C3
:1007C0000833043105930891402B00D033E72122F0
:1007D00008AB1A761B7C08AA5376537C00249376C8
:1007E00022238025D376937C1377D37C53771822EA
:1007F00008AB9B181B5D08AA5373002315733C219B
:1008000000930BAA0233DE48013402F04FFC062CA1
:10081000EDD10D9F7E1C300002F0F6F8402304005D
:1008200003703A0018A9013002F012F900232200E7
:100830003C210093D248330002F038FC200002F043
:10084000F5F8D04800F0A4FE08AB1D76A72308AA4F
:10085000537600230EAA3C210093C948023302F0CC
:1008600025FCC84800F094FE08AB1D76A62308AA14
:10087000537600230EAA00933C210233C04802F0B5
:1008800015FC02230593013B04937F23039300236C
:1008900001249B467F235A469F1A039B5946DA1729
:1008A0009B1853409C465B46FA0FDB17B9425341F5
:1008B00060465B4223439846049B1F38002B00D1BF
:1008C00021E100239A4607335E46002599465146AA
:1008D000029718AA92464A4627002A4097403A00B3
:1008E000CB019B1953441F783A431A70029B9E42D6
:1008F0000BD043001A001F3203DB1F3846449C45CF
:10090000E7DB01356044E910E3E71F2DF1D1212237
:1009100008AB1A761B7C08AA5376537C0026937684
:1009200022238027D376937C1377D37C53771822A6
:1009300008AB9B189B5D08AA5373002317733C21D7
:1009400000930BAA02338E48013602F0AFFB062E4D
:10095000EDD10D9B5F1C3800984602F055F84023FE
:1009600006000370424618A9013002F071F8002316
:10097000320000933C213B00814802F097FB30009D
:1009800002F054F801239C46039BE344023B03938B
:100990005B46802B00D07DE70724613B03933E3B01
:1009A0009C463E339946203B9846039B1F22D21A11
:1009B00092461D00DF1701237F2249469B4653467E
:1009C000501A049A00260293002A1DD1790F18AA02
:1009D00092466A182240521A5946230091403B40E1
:1009E0005B19DB10DB019B1953441A788A431A7098
:1009F0007F2E2DD04300634524DA45447F30EF1726
:100A0000E4E745447F30EF17790F18AA92466A1839
:100A10002240521A5946914023000A003B405B197C
:100A2000DB10DB019B19534419780A431A707F2E9F
:100A300065D043006345E4DB4A460136801A7F2BCC
:100A4000E2DCDEE74A460136801A7F2BBEDCD4E7C3
:100A5000029BAB42CED1212208AB1A761B7C08AA9E
:100A60005376537C0025937622238026D376937C7D
:100A70001377D37C5377182208AB9B185B5D08AAC9
:100A80005373002316733C2100930BAA02333C4896
:100A9000013502F00BFB062DEDD10D9F7E1C3000C1
:100AA00001F0B2FF4023050003703A0018A901309D
:100AB00001F0CEFF00232A0000933C213300304890
:100AC00002F0F4FA280001F0B1FF039B5A1E0392D2
:100AD0004DD3039843005B421F33DA179B185340F2
:100AE0001F229946121A5B42D10F9C46C3179042AF
:100AF0004B4101225B4213439846030056E7029B99
:100B00009D4296D1A7E70023594600269A4618AA87
:100B1000914607222500534632409540DB015B1881
:100B20004B441A78AA431A70B9420DD043001A00F8
:100B30001F3204DA0136F31060449A46E7E71F38A3
:100B400041449C45E3DBF5E71F2EEFD1DFE60621AC
:100B50000391013104910239029101398C46013926
:100B600088460139894601398A46002598E50022E0
:100B7000059B0492013B0593002B00D085E6D2E44F
:100B8000C8020020B80B0000094A830094464022A6
:100B9000634410B51C68C0006240C0241440802229
:100BA000520113431C60034B9C466044416010BDDE
:100BB00004C00140004001400B4B80009C46604453
:100BC00000290DD00C210823002A00D00B00026858
:100BD00053400C221A4080235B0118430260704787
:100BE00004210023F0E7C04604C00140024B18680E
:100BF0008007C00F7047C04600C00640F8B5EFF34D
:100C0000108772B60D4E3368002BFCD0BFF35F8F98
:100C10000725CB08C01801230D40AB401D00047808
:100C2000254007D123430370BFF35F8F356087F3FF
:100C30001088F8BD100001F089FDC0462C0100D0DD
:100C40000021044B044ABFF35F8F02C39342FAD1E1
:100C50007047C046000100D0800100D0044A1078DF
:100C6000431CDBB2172B00D9102313707047C0460A
:100C70001802002001238340002902D1034A136097
:100C80007047034A1360034A1360F9E780E100E00C
:100C900080E200E000E100E0024B10309B68800041
:100CA000C058704700ED00E070B50D00EFF31086FE
:100CB00072B60F4A1368002BFCD0BFF35F8F0D4B49
:100CC00010309B6884001B590B4A934203D09D420D
:100CD00001D001F053FD074B9B681D51BFF35F8F9F
:100CE000BFF35F8F0022024B1A6086F3108870BD3D
:100CF000240100D000ED00E0CD010010F0B5DE468B
:100D000057464E464546E0B50C0083B0EFF3108AD7
:100D100072B6584A1368002BFCD0BFF35F8F0200F5
:100D2000554B10329B6891005E58544B884699464B
:100D30009E425CD0A64200D172E0514D731B2F2B16
:100D400055D8012787404F4B1B683B4001934E4BC2
:100D50001F60BFF35F8FEFF305839B46002B03D02B
:100D60009A4201D001F00AFD012332009A439368B0
:100D70009C4200D16BE006215156002905DA31E092
:100D8000062159561A0000292CDB4B005B189B00EA
:100D9000EB1899688C42F3D106215956002941DBA2
:100DA0004A00501880002C188146A0689860E079AD
:100DB000D871062020569871A0797F2845D8A4883C
:100DC000E81A640524154C440019E0240005400D80
:100DD00024022043988052182C4B9200AD181A78A8
:100DE0001970AA71019B002B15D1274B1F60424639
:100DF000214B9B689E50BFF35F8FBFF35F8F002234
:100E00001C4B1A608AF3108803B03CBC904699468C
:100E1000A246AB46F0BD1E4B1F601A4B1F60E6E7B3
:100E20001E00E4E75946002914D1002A1FD0FF31E3
:100E300091711849918015490A789A71164A5B1B7D
:100E40005B415A43120D0A70CCE71448C2E7130005
:100E50000022A1E7124A1349D21A083A5002400D63
:100E600001439980104952080A43DA80BAE74E4696
:100E7000E1E7C046240100D000ED00E0CD01001004
:100E80001C02002000E100E080E100E06D0E002087
:100E900080E200E001BDFFFFAAAA000001BD000042
:100EA0005602002000F0FFFF00F8FFFFF0B5EFF35F
:100EB000058101240443EFF3108672B6214A1368BA
:100EC000002BFCD0BFF35F8F1F4A204B0500AD1AEB
:100ED0006D416B431B0D1E4D8900AF685BB27F589F
:100EE000BC4226D006215156994226D01221515695
:100EF000994224D01E215156994210D02A21515690
:100F0000032499420CD0134A117813708171BFF3F6
:100F10005F8F00220B4B1A6086F31088F0BD02240D
:100F20006100091989005218FF2191710A499180C5
:100F3000E9E7AA68094C5450E5E70024F0E70124EA
:100F4000EEE7C046240100D01C020020AAAA00003F
:100F500000ED00E06D0E002001BDFFFFCD0100108F
:100F6000084B094A1360094A1360094A1360094A89
:100F70001360094A1360094A1360094A1360094A59
:100F8000136070478080808000E400E004E400E0AB
:100F900008E400E00CE400E010E400E014E400E009
:100FA00018E400E01CE400E0024B9C466144890028
:100FB000016070474000003410B50400FFF74EFE9A
:100FC00001002000FFF7F0FFFF232371BFF35F8FC5
:100FD00010BDC04610B50400FFF740FE0100200020
:100FE000FFF7E2FFFF23237100236371BFF35F8FDD
:100FF00010BDC04683680B4810B584466144624406
:10100000090112019A18591854684B6801209C4232
:1010100001D802D00020C0B210BD12680B689A42FD
:10102000F9D8F7E7FFFFFF0F0A4B1968EFF31080BD
:1010300072B60A68002AFCD0BFF35F8F1B68BFF34B
:101040005F8F00221A6080F3108840BF00200021CB
:101050007047C046540E0020F8B54E464546DE4661
:101060005746E0B51F000CAB1D780DAB1B788146D1
:101070009B46036816009846002D08D1987B0028EF
:1010800041D13CBC90469946A246AB46F8BD2800EB
:101090006C006419033C384B00229C464B469B680D
:1010A00060449C4600010A9B604483600B9B066081
:1010B0004760C36043461B681B199A705A701A70C8
:1010C00043465B7B9A46002B3BD043462A009868F8
:1010D00051465B68984743461A68002824D0534617
:1010E0005B005344033BD31814195246A2701A787C
:1010F000002A00D062701D705246434628005A7381
:10110000AA45BED11FE0414644001B682418033C99
:101110001B195A788A73002A00D1CA73002205006D
:101120009A705A701A70B6E753465B005344033BFB
:10113000D31814199D702278002A00D05A70534693
:10114000237043465D734B463200187D3B0000F030
:101150001FFC041E07D05B46002B04D14B46290020
:10116000186800F031FE0E9B002B02D01C70280086
:1011700087E7280085E7C046FFFFFF0FF0B5DE4692
:10118000454657464E466A4B8200E0B5D558002387
:101190009B468BB0099000F06FFB6A68EFF31084F8
:1011A00072B61368002BFCD0BFF35F8F2B689C4690
:1011B0005B7B9946002B00D17EE0AA685D4B904690
:1011C0004B441B01984443461E685F6832003B0055
:1011D000121A8B41002B00DC82E032003B000998A0
:1011E00000F0D6FB002300229846002306920793C6
:1011F00000239A466B68BFF35F8F5A461A6084F3E8
:1012000010885346002B61D0089B414618024B467C
:101210001843D0476A6806000F00EFF3108472B6D7
:101220001368002BFCD0BFF35F8F002F22DA2B69ED
:10123000002B25D0069A079B921BBB41002B02DA9C
:1012400001223D4B524259460491012103914946E6
:10125000029141460191514628000091FFF7FCFEA2
:101260005B462B616B68BFF35F8F5A461A6084F34D
:10127000108890E733003B4302D02B69002B4DD1FF
:101280002B68DA7B002A07D051008A1819688C462F
:1012900049466244033A51709A7B002A01D14A467A
:1012A0009A734A46DA73EA684B469446013B6344B4
:1012B0001A7801321A70D3E70023002298460023DF
:1012C00006920793002300209A4693E7002800D057
:1012D00061E70BB03CBC90469946A246AB46F0BDD8
:1012E000002B02D1002A00D077E70021604600F0F1
:1012F000C1FC43461A685B680692079343469B68A5
:101300009A464346DB689846EB684B44013B1B78A2
:1013100008931B021843286100206BE700F0ACFA29
:1013200032003B0012184B41002B00DA88E78AE7B5
:10133000180D0020FFFFFF0FFFFFFF7F10B5144CBB
:101340006368002B04D00A211248FFF72DFE10BD60
:101350002300114A1021206800F06EFC032000F0E9
:101360007FFA032000F082FB0C49032000F0CAFA48
:10137000FFF774FC0A4B9C4603232375D0231B06FE
:101380001B6860446375074B80006060DC60DAE7CF
:1013900064020020540E0020F50F00107D11001093
:1013A00040000034180D0020F0B557464E46454623
:1013B000DE460400E0B50D0006267642F717361922
:1013C0006F4185B08F4255D852D000F055FA3200A7
:1013D0003B00121A8B41002B56DD684B9A465A6827
:1013E000EFF3108B72B61368002BFCD0BFF35F8F46
:1013F00053461B6899469B7B9846002B4AD153461F
:101400005B68BFF35F8F00221A608BF3108843463E
:10141000002B11D0BC46B0460094019500266546CD
:10142000574F584A7B6AAB4211D3B96A414501D242
:10143000AB420CD0009C019D2000290000F052FA24
:1014400005B03CBC90469946A246AB46F0BD11683B
:10145000EFF3108072B60B68002BFCD0BFF35F8FE8
:101460001368BFF35F8F1E6080F3108820BFD9E739
:101470008642AAD90026002700F0FEF932003B0080
:10148000121A8B41002BA8DC002BD5D1002A00D0EA
:10149000A3E7D1E75B0043444A46033B9C464946E9
:1014A00012680093624453788B73002B00D1CB7386
:1014B000002351469370537013708968324A8C46EA
:1014C0004244324912016244166057609160D36011
:1014D00000994A468C4612686244937053701370A8
:1014E0004B465B7B0393002B35D0190048464B4697
:1014F000424680685B689847002819D00398009995
:1015000084464A46430063448C4669461268097B18
:10151000033BD318624491701978002900D05170B0
:1015200042461A704B465873804500D067E715E075
:101530004B4603981A688446009BD11843006344C5
:10154000033BD31842469A700A78002A00D05A709A
:101550006B461B7B0B704B4642465A735346320018
:10156000187D3B0000F014FA002800D147E75346ED
:101570004146186800F028FC41E7C046640200209C
:1015800000400540540E0020FFFFFF0F29100010FF
:1015900070B5060000F070F9FA2204000D00920008
:1015A00000233000002101F0CBF900196941002926
:1015B00002DA012002494042FFF7F6FE70BDC04644
:1015C000FFFFFF7FF0B5EFF305835746DE464E463B
:1015D0004546E0B50C0083B00700002B17D0002172
:1015E000724A8846536A9C4209D80121926A884609
:1015F000BA4204D2E41A631E9C41E3B298464046C4
:1016000003B03CBC90469946A246AB46F0BD684D3F
:101610006A68EFF3108A72B61368002BFCD0BFF330
:101620005F8F2B689E7B9846002E3FD10023984603
:1016300001936A68BFF35F8F002111608AF31088FD
:10164000002E00D17DE04246002A00D079E0019AC8
:101650001B02134320BF6968EFF3108972B60A6852
:10166000002AFCD0BFF35F8F2868D9B2427B8A4240
:101670006FD0FF221A405600B24606689244B44624
:1016800056466644033EB678002E64D12A699342DA
:1016900000D188E06B68BFF35F8F00221A6089F386
:1016A0001088424A536A9C42A9D89EE773009B194E
:1016B000033B9946434641461B6801964B445A7882
:1016C0008A73002A00D1CA7300229A705A701A7065
:1016D000A968384B8C46F3181B01374963441F60D7
:1016E000DA605C60996043461B684B449A705A709C
:1016F0001A7043465B7B9B46002B45D0190043463E
:10170000320098685B68984743461A6800282DD0D5
:101710005B4659465B005B44033BD3184A449170D7
:101720001978002900D051701E705A4643465A73EA
:101730005E452BD000239846EB689B19013B1B7834
:1017400077E71A4A536A9C4200D84EE7002398462E
:1017500055E7FF221A40EE681B0AB4466244013A7C
:1017600012789A4296D100F02FFB93E74B46D1189E
:101770005B465B005B44033BD3189E700A78002AEB
:1017800000D05A705B460B7043465E73287D3A006A
:10179000230000F0FDF880460028CBD031002868F7
:1017A00000F012FBC8E72E6174E7C0460040054018
:1017B00064020020FFFFFF0F29100010F8B5EFF3BF
:1017C0000583CE464746180080B51038EFF3108CDD
:1017D00072B61C490A68002AFCD0BFF35F8F01244F
:1017E000220082401849194E72630A6018490D7828
:1017F00089462900C1408846474600213C420BD01B
:10180000746A144EA0468400A659B04512D3124BF8
:101810009543E1584B461D70BFF35F8F0022094B83
:101820001A608CF31088002900D088470CBC9046C1
:101830009946F8BD094A9B00904643441A681A60CD
:10184000EAE7C046280100D03C7005400040054052
:101850006E0E0020580E0020880C0020D03F05405E
:1018600010B50100024A0348FFF7C8F910BDC04691
:10187000B04500106C0E0020044A516A00E01900C7
:10188000906A536A9942FAD17047C04600400540B9
:10189000134A30B5546A00E01C00956A536AA342AB
:1018A000FAD12A002300801859418C4211D80ED059
:1018B0000C000B4A536AA342FCD307D1084A02E04A
:1018C000516A994202D1916A8142F9D330BD854271
:1018D000EED9012401204042C1176442E9E7C04625
:1018E00000400540064A536A9942FCD807D1044B90
:1018F00002E05A6A914202D19A6A8242F9D3704751
:101900000040054070B504000D00EFF3108672B67C
:101910001A4A1368002BFCD0BFF35F8F002D1BD039
:101920002000FFF7B9F9164988420AD02000FFF7D6
:10193000BBF901212000FFF79DF90123A340114AC3
:101940001360114BA400E550BFF35F8F00220B4BD7
:101950001A6086F3108870BD0B4BA200D55001228F
:10196000A2400A4920000B7893430B700449FFF70B
:10197000C5F900212000FFF77DF9E5E7280100D037
:10198000BD17001038600540880C00206E0E002046
:10199000F0B5D6464F4646462F4CC0B5656A00E0C6
:1019A0000D00A66A616AA942FAD1AB4249D9EFF3A8
:1019B000108972B6294C21680029FCD0BFF35F8FD3
:1019C0000126274986408C460978264D0F0037436B
:1019D0008846F9B28A46614654460C701E49041D79
:1019E000A4004E636250840063510D6A00243542A6
:1019F0001AD04D6A00E025008F6A4C6AAC42FAD1D9
:101A0000AB4224D801D1BA4221D8D04521D0124BC3
:101A1000154A1E625E631F2318401E3B83401360FD
:101A20006346424601241A70BFF35F8F00220B4BBE
:101A30001A6089F3108820001CBC90469946A24683
:101A4000F0BDAB4201D1B242B1D80124F3E700248A
:101A5000EAE70124E8E7C04600400540280100D03D
:101A60006E0E0020580E002080E200E010B5EFF36B
:101A7000108472B60A490B68002BFCD0BFF35F8F4D
:101A800001238340074A0848136202789A43027090
:101A9000BFF35F8F00230B6084F3108810BDC04636
:101AA000280100D0004005406E0E0020F8B54E46DB
:101AB0004546DE465746E0B54C0064180368033CD3
:101AC0001A190D00517806008946002906D1280010
:101AD0003CBC90469946A246AB46F8BD4F004F44E9
:101AE000033FD81941788846002141705170002D7C
:101AF00012D073684A462900B068984733680028B6
:101B000073D0DF191A19BD701178002900D07970CF
:101B100049462700117000E04D464246002AD6D0C3
:101B200054004444033C1A1951788946002911D1C4
:101B3000736842462900B06898473368002849D046
:101B40001C19DF19A5703B78002B00D06370434649
:101B50003B70BCE74900494403398A4653445978ED
:101B60008B4600215970517073684A464146B068EF
:101B700098473368002843D152461C199A184B469F
:101B8000A3701378002B00D0637043465446C846B8
:101B900013705B46002BCBD059463000FFF786FF11
:101BA00081460028C4D002004146B0687368984757
:101BB000326800282FD04B465B004B44033B111981
:101BC000D31842469A700A78002A00D05A704B46C1
:101BD0000B70ADE71C19DF194346BB702378002B4F
:101BE00000D07B702570454671E749461C19DA190B
:101BF000A1701178002900D0617015704D468CE7F6
:101C000041461A19534499701178002900D059702F
:101C10004B461370BDE74B465B004B44033BD1186A
:101C200014194A46A2700A78002A00D0627042460F
:101C30001C000A70C8467BE710B583600023CCB255
:101C400043730133047342608373C4730068012CCF
:101C500007D90123421C0133DBB2137003329C42CB
:101C6000F9D8FF2319404B005918002340180338B6
:101C7000437010BDF0B54E4657464546DE46E0B5CA
:101C8000477B03687D00ED19033D5A19167883B030
:101C900004008946002E22D1002915D0E07B0028BF
:101CA00004D041000918591803394F70A17B00294D
:101CB00000D1A773E773002E06D07100891903398C
:101CC000884600214344997000233800537066739E
:101CD00003B03CBC90469946A246AB46F0BD7100AD
:101CE000891903398846591848788246002803D153
:101CF00049460029E5D0D1E742005244033A9446D0
:101D0000019263445A78934600225A704A7063687D
:101D100052463100A06898472368002845D04146C4
:101D200001985A1819188E701078002823D151463E
:101D300011705A46002A21D059462000FFF7B6FEFE
:101D40008246002819D0020063683100A0689847D5
:101D50002368002814D04246991852465200524433
:101D6000033A9A1896700878002800D050705246AE
:101D70000A705A19BCE74870D9E723685A19B7E7BF
:101D800052465100514403395A1840469346524630
:101D9000181882705A461278002A00D042705A46AB
:101DA000884616705A195646A2E741465046019A8F
:101DB00059189A1888701078002800D0487016704A
:101DC000019A56469046B4E7F0B54546DE4657467A
:101DD0004E46E0B50C00050083B00020002940D03D
:101DE0006B7B9846994200D1B4E04E0076182A6881
:101DF000033E91198F78002F33D07B00DB19033B12
:101E0000D3181878844202D1A1E0002808D04300FA
:101E10001B18033BD31858788442F6D14878587081
:101E200000230F789C468B704B70002F41D1E87BCC
:101E3000002804D043001B18D318033B5C70AB7B15
:101E4000002B15D0EC73002F16D000237C00E41972
:101E5000033C121993704B704346002B11D10120A3
:101E60006F7303B03CBC90469946A246AB46F0BDAA
:101E7000AC73EC73002FE8D14F70474601206F73AD
:101E8000EFE73A004146A8686B6898472A6800283F
:101E900000D185E043465B004344033BD31814194B
:101EA0004246A2701A78002A00D062701F7047461E
:101EB000D5E77800C01903388146101843789A4650
:101EC000002BB4D059005144CB1E9846424453785D
:101ED00039009B466346537043705246A8686B684E
:101EE00098472A68002800D1C4E041464B46511863
:101EF000D3188F701878002800D048705146C84613
:101F000019705B46002B1ED059462800FFF7CEFD06
:101F10008146002800D195E002003900A8686B686E
:101F200098472A68002800D191E04346D1184B46D3
:101F30005B004B44033BD3189F700878002800D007
:101F400058704B460B706B7B911998466FE7487839
:101F5000187065E7424656002B684644033E9919BF
:101F60000C78002C2AD1E87B002805D042001218FA
:101F700040469A18033A5070AA7B002A01D1424683
:101F8000AA734246EA73002C05D0620012199B180E
:101F90000022033B9A70002301204B706C7360E7B2
:101FA00043465B004344033BD31814199F702278C7
:101FB000002A00D05A704346237050E767003F194B
:101FC000FA1E01929A185778BA46002FCBD07900A2
:101FD0005144033989464B445978587050706B68A6
:101FE0008B463A002100A86898472B68002860D0EB
:101FF0004946019F5918DA198C701078002865D16C
:102000005146B94611705A46002A19D0594628003F
:10201000FFF74CFD071E3AD002006B682100A8684C
:1020200098472B68002835D04A4699187A00D2196B
:10203000033A9A1894700878002800D050700F70F6
:10204000991990E76B7B2A6898469119EFE64B4601
:1020500059004346484649440339D31851189870EB
:102060000878002800D058700F706B7B9119984643
:102070004F46DCE64346D1184B465046D31898707D
:102080000878002800D058700F70574639E72B6841
:10209000991968E74A467900C91903399A185918F5
:1020A00097700878002800D050700C7099193C0087
:1020B00059E701994A465F1851469A18B970117844
:1020C000002900D07970147054469CE7487051463E
:1020D0001170019A914696E7F8B5CE46474604003E
:1020E00080B506200D0000F027FA0026002800D158
:1020F0008FE04F4B80229C4200D196E0D2034D4BA3
:102100004D491A604D4B1A6010008B689843FBD103
:102110004B4B8021E3185A4253414A4A5B00490025
:102120000620995200F008FA2900C00000F09CFB3C
:10213000C30900D172E0444A934200D971E07F2282
:102140001040013040089E011A00030036186262F8
:10215000A362236B9846DB0718D52200C0233032D8
:102160009B011343394A06201A60656AA36AAD01D0
:10217000ED1800F0E1F9364900F076FBAD02010000
:10218000280000F071FB0021FFF782FB270080256B
:10219000E36A00232C376D013D432B604346062044
:1021A000236300F0C9F93100800000F05DFB236B70
:1021B00006009846DB071BD52200C02330329B0166
:1021C0001343224A06201A60636AA26A9B01994659
:1021D000914400F0B1F94B461D499B02994600F02D
:1021E00043FB0100484600F03FFB0021FFF750FB96
:1021F0006022E36A5A406E2313402B6043462363F8
:10220000802310229B013B431A60104B236303235E
:10221000A36430000CBC90469946F8BD40260122CC
:1022200095E70C4E00230C4A91E7120467E7C0467D
:102230000080034000E0004000C0004000F000408B
:102240000080FCBF700E0020FEFF000001030000B4
:102250004E0E0000C0FF3F00FFFF000030B50C2015
:1022600083B000F0BDF9FEF7C1FC00280ED09B4BF7
:102270009B4A1A605A609A60DA601A615A619A61E0
:10228000DA611A62974A5A6203B030BD964CA06771
:1022900000F0AEF90122954B1A60636C012BFCD162
:1022A0000322934B1A60904A936B012BFCD10133AC
:1022B0000093904A043301218F4800F043F905232D
:1022C0008E4A009301218E4800F03CF98D4B5A68EC
:1022D000FF2A02D8802252005A6080227F4C844B11
:1022E00021691201874D1A60002900D0EDE0E0213C
:1022F000844B02201A681140802252012A43116047
:102300001968484003210140116004219A68114274
:10231000FCD08022802192012A4309011160802291
:1023200052005A60784B2361784B5968FF2900D8D6
:10233000C9E003226D4B75481A60012103009A68B9
:102340001142FCD0E0251A68154080225201024358
:1023500015601B684B4003211940116002216B4A34
:1023600093681942FCD0802380219B01034309011B
:1023700019608021664B490051606361654B5A6862
:10238000FF2A00D859608022634BE1691201614D38
:102390001A60002907D0606900F066FA431C5800F3
:1023A000C0180338FDD2E0225A490B681A40802336
:1023B0005B012B431A60802380229B012B43120177
:1023C0001A608022464B52004A60E361534B5968C1
:1023D000FF2900D85A608022514B216A12014F4DCB
:1023E0001A60002907D0606900F03EFA431C5800CB
:1023F000C0180338FDD2E02248490B681A408023F8
:102400005B012B431A60802380229B012B43120126
:102410001A6080235B004B60314B424A2362424B7F
:102420005968914201D801325A6080223F4B616A5B
:1024300012013D4D1A60002907D0606900F014FABE
:10244000431C5800C0180338FDD2E02236490B68FF
:102450001A4080235B012B431A60802380229B015A
:102460002B4312011A608023DB024B601D4B636219
:102470002F4B5A68FF2A02D8802252005A608022CD
:102480002C4BA16912012A4D1A60002907D06069FE
:1024900000F0EAF9431C5800C0180338FDD2E022CE
:1024A00023490B681A4080235B012B431A60802369
:1024B00080229B012B4312011A6080235B004B603A
:1024C000134BA361E0E65A6033E7606900F0CCF992
:1024D000431C5800C0180338FDD208E7A00C0020A8
:1024E000006CDC021BB70000008000403CB00040E4
:1024F00030B00040002F685900800240008C8647B1
:1025000000C0024030800040001BB7003C8000400B
:10251000405973075480004054B000406080004030
:1025200060B00040FFFF03006C8000406CB00040D2
:102530004880004048B00040014B8000C0587047C0
:10254000A00C0020F8B50400204817001D000E0064
:1025500000F08AF90100380000F086F9069A2B0491
:10256000120313432268002A1CDB194A802194427B
:1025700029D04901174A184D1160184A11600F00FF
:10258000AA689743FBD1C021221D89011143212252
:102590002660A0600A602268002AFCDAE360082353
:1025A0000B60F8BD3F2221680A409642DDD1A26847
:1025B0001205120D9042D8D1EE21E268C9020A40FC
:1025C0009342D2D1EDE78901D4E7C046001BB700A2
:1025D00000C0024000E0004000C0004000F00040A9
:1025E00080239B001843014BD86270470080054050
:1025F000AA23064A1B0113602F230549D360054B0C
:1026000019605368002BFCDA7047C0460040024056
:1026100000B0FA00006002402D4A2E4B70B51A60DF
:102620002D4A2E4B2E491A6010008B689843FBD11F
:102630002C4E2D4B9E420AD2F5430024ED18AD08D6
:102640000135A300F35801349847AC42F9D1FFF7A4
:1026500005FE264A214B1A60214A9368DB0180332C
:10266000FBD14022224B234C234D9A675A671A67AD
:10267000DA66AC4208D223682000002B22D008344E
:10268000FEF7A8FCAC42F6D31C4D1D4CC022A1683D
:10269000280000F0DDF9A560FEF7D2FAFEF760FC35
:1026A000FEF74CFE174E184B9E420AD2F54300240B
:1026B000ED18AD080135A300F35801349847A54241
:1026C000F9D170BD0834FEF777FCAC42D3D3DBE719
:1026D000BFCDFBFE00E00040FE7F3C0000F000406C
:1026E00000C00040200B0020300B0020FFFFFF0146
:1026F00000F00140180B0020200B002000000020FB
:1027000000ED00E0300B0020340B002000BEFDE7A0
:10271000094A1368002B06D008491818884208D8BF
:10272000106018007047064B04491818136088425F
:10273000F6D901204042F5E7100D002000000420EA
:102740007810002010B5FFF7E1FFC0460FB400B5C8
:10275000084883B000F066FA049B002B07D005A957
:102760001800019100F02EF8034800F05BFA0120F8
:10277000FFF7CCFFE0450010F045001010B5014810
:10278000FFF7E4FFD445001010B5002800D110BDBC
:102790000B4B1C68A2689368013B9360002B04DB21
:1027A0001368591C11601870F1E791698B4201DBC5
:1027B0000A28F5D10100200000F0EEFFE7E7C0464F
:1027C000D802002010B5094A84B01468002C09D042
:1027D000012200910300524203A90548A0470120AD
:1027E00004B010BD00F01EFA0020F9E7140D00201F
:1027F0008927001001480421014B1847900200204E
:1028000025280010142310B50100188804331B88F4
:10281000984710BD162310B50100188802331B8895
:10282000984710BDF8B54746CE4680B50F1E19D063
:1028300014239946043304000025012698464B468C
:102840001888434621681B88984701C4431E984155
:10285000013540420640AF42F1D130000CBC9046F9
:102860009946F8BD0126F8E7114A936F9B0813D2E9
:1028700010665166002905D0FFE7FFE7FFE7516FBB
:10288000106F704704B5002801D00020C04301F04C
:1028900047FD002104BDC046F0B5146E556E576F5C
:1028A000166FFFF7E5FF1466556657671667F0BDAC
:1028B000000000D0132370B51C78012C15D010DD5A
:1028C0000F48FFF7A7FF0F4D01008022280000F0FE
:1028D000BFF8022C06D00C48FFF794FF0B4B186092
:1028E00070BD084D0A4AAA64F5E7064D084A29005A
:1028F0002B00803104C38B42FCD1AA64EBE7C046B5
:1029000053440000740E00204C330000500E002091
:102910001529001007B5604601880A0A0230DF2A2F
:10292000FAD1C9B2820804D3028840880004104357
:1029300000E00068014A5050039007BD740E00206B
:1029400051434343C9188C46110C83B24B4310B416
:10295000040C614392B280B2504362431C041B0CCE
:10296000001910BC59411304120CC01851416144A4
:1029700070470000132310B51C781348FFF74AFF77
:10298000012C0BD004DD01008022104800F060F81B
:102990000F48FFF737FF0F4B186010BD0B4C0100BD
:1029A0005422200000F054F80B4B6365A365E365E7
:1029B00023666366A366E36623676367A367E367CB
:1029C0002362E361E4E7C04653460000740F002031
:1029D0004C330000500E0020DD29001007B5604682
:1029E00001880A0A0230DF2AFAD1C9B2820804D368
:1029F000028840880004104300E00068014A5050FB
:102A0000039007BD740F002010B5040000F0BCFB5C
:102A1000002804D0034B04199C4200D810BD024882
:102A2000FFF794FE00000420F445001010B500F0FC
:102A3000B5FB10BD01480421014B1847A00200203E
:102A400025280010014B1B6818470000A002002039
:102A5000014B5B6818470000A0020020030010B57E
:102A600008001B681100984710BDC046F8B54746DE
:102A7000CE4680B5437D80460E001700002B48D01F
:102A8000002A2EDD274B012500240020994604E072
:102A90002B00013401359F4219DD002C3ED0631E0E
:102AA000F35C0D3B59425941CBB2325D0A2AEFD15A
:102AB000002BEDD1844226DC434648461B680221A8
:102AC0009847013428002B0001359F42E5DCB842CD
:102AD0000BDBF619013E33780D3B59425941434611
:102AE00019750CBC90469946F8BD4346391A301802
:102AF000F6191B68013E984733780D3B59425941FE
:102B000043461975EDE74346211A1B68301898476C
:102B1000D2E70368110030009847E2E743461B7D87
:102B2000C3E7C04668460010F0B5DE4657464E463D
:102B30004546E0B583B017001C0006000D00FEF707
:102B40009BFE0023304A12184B41002B02DA01226F
:102B50002E4B52422E490800884601F0E9FB81467F
:102B60006B1C30D0002C2BD12A4B9A462A4B1C6868
:102B7000002C15D0002F2BD1284F02E02469002C07
:102B80000ED02368002BF9D03B68002B01D0A34264
:102B9000F4D120002A003100D0472469002CF0D164
:102BA0004B46002B02D0404601F0B2FB681E854127
:102BB000E8B203B03CBC90469946A246AB46F0BD95
:102BC000174B9A46D2E7300000F0B4FD0500C9E784
:102BD000124B9B466B46DF1D02E02469002CDFD0C0
:102BE0002368002BF9D05B461B68002B01D0A34261
:102BF000F3D12A0031002000D0470A2301223900F6
:102C000020003B70D047E8E740420F00FFFFFF7F06
:102C1000180B00206D2A0010080D00200C0D00205C
:102C20005D2A001070B5040000F084FD002301004F
:102C3000050001222000FFF777FF064B1C68002CDF
:102C400006D06368002B00D098472469002CF8D187
:102C5000280070BD080D0020F0B54646DE465746F8
:102C6000C0B5904682B00E0000282CD11A4B1B4DE7
:102C70001A685B681A4F9A461A4B01929B465B464C
:102C80001C68002C05D115E0A34205D02469002C56
:102C900010D02B68002BF7D1A368002BF6D041464B
:102CA000300098470028F1DD02B01CBC90469A46DF
:102CB000A346F0BD7B6A9A4508D8BA6A01998A4250
:102CC00001D29A4502D001204042EDE701200021C7
:102CD000FEF7DEFDD3E7C046A84500100C0D00202E
:102CE00000400540080D0020F0B54646D6464F4648
:102CF0000138C0B515000E0001283ED8FEF7BCFD16
:102D000000231F4A12184B41002B02DA01221D4BEF
:102D100052421D49A9460800884601F009FB824637
:102D20006B1C25D0194B1C68002C14D0184F02E0E6
:102D30002469002C0FD02368002BF9D03B68002BAE
:102D400001D09C42F4D120004A463100FFF78EFEAC
:102D50002469002CEFD15346002B05D128001CBC60
:102D600090469946A246F0BD404601F0D1FAF5E7FB
:102D7000300000F0DFFC8146D4E701256D42EDE72D
:102D800040420F00FFFFFF7F180B0020080D0020BE
:102D90000C0D0020012040427047C04601204042F7
:102DA0007047C046012040427047C04602220023BF
:102DB00082425B41180070470A4A1368002B05D114
:102DC0000CE01A001B691032002B07D09842F8D192
:102DD000002902D103691360016170470029FCD00A
:102DE0001060FAE7080D002010B500F0B9F80120D6
:102DF00010BDC046F0B5002915DD0E4B0D271A6831
:102E00000D4B4118D3185C4263410C4C5B001E5FB4
:102E100020240578B54207D093691C42FCD10130CB
:102E200015608842F5D1F0BD93691C42FCD1176052
:102E3000F2E7C046680E00200080FCBF700E002044
:102E400030B5002925DD184B1A689369DB0620D4BC
:102E5000050010240020013093691C42FCD1136846
:102E60002B70814203D0936901351C42F3D00F4B84
:102E70001B68002B0AD050239363516B183B3432EC
:102E80000B401100802252010A431360002808D031
:102E900030BD064B1B68002B03D0034B00201A6883
:102EA000E9E703204042F3E7680E0020980C002079
:102EB000064B10B51B68002B06D00021044A12688F
:102EC0009163044A1068984710BDC046980C0020D2
:102ED000680E00209C0C0020F0B51C4F1C4A3B687B
:102EE00005009818C6468846414241410800143002
:102EF00000B50400174E002D09D03368002B12D006
:102F00004246154B35601A6004BC9046F0BD3268ED
:102F1000002AF5D09D630021FDF7ACFE0F4920008B
:102F2000FDF7ECFEECE70D49FDF7BEFE01212000A8
:102F3000FDF7A0FE502238213B689A635A6B343368
:102F400011408022520113431960D9E7680E002016
:102F50000080FCBF980C00209C0C0020B12E0010BB
:102F60000C4B10B51B780C4B0C4C1B780C4B0221F6
:102F700000202360FDF708FE02210120FDF704FE7A
:102F8000E12120684902FFF7A7F801210548FFF772
:102F900013FF10BDDC470010E0470010680E002052
:102FA00000400340B0020020F0B54F46D6464646EA
:102FB000374BC0B504000F00984266D01022354B45
:102FC00035491A60354B1A6010008B689843031E10
:102FD000FAD166212268FF312071D0661160633911
:102FE0008833FF39D0639063D1500520FFF7A4FAEE
:102FF0000500780839004019FFF736FC4300984671
:103000008044060005214046FFF72EFC331A9A46FD
:10301000234B8146680040199F4231D82149FFF770
:1030200023FC471C002324680120E3662268043344
:10303000534006221A4080235B0123431A60534603
:10304000E3614B4623620F2B03D950214046FFF723
:103050000BFCA0232200E0508023E06F7C327840FC
:1030600000045B011343000C1860012331002800A9
:10307000E366FFF7F9FB1CBC90469946A246F0BDFB
:103080000949FFF7F1FB471CCCE7082297E7C04648
:10309000C802002000E0004000C0004000F00040F6
:1030A0003F420F008096980040787D01F0B5DE46E3
:1030B0004E4645465746E0B583B09C460CAB1B7860
:1030C00004689B460023E36601336160E366634660
:1030D00080469146002B4BDD59465A1E01234B403A
:1030E0005B0201938023002010219A464F466646DA
:1030F0000025A94600283DD0824242D00025AC469A
:103100004B463D5C1D4363461D432561656B29426B
:10311000FCD05346E3589946002B18D001239C4617
:10312000656D8023656B9B001D42FAD06346256E5A
:10313000002B13D101308642DAD143465A461A7128
:1031400003B03CBC90469946A246AB46F0BD8242D5
:10315000F0D15B46002BEDD1DC46E2E74E46002E77
:1031600003D0F30701D43307E7D402204042E4E759
:103170000020E2E743461D796B1E9D41AB02994654
:10318000BAE7019B9C46BBE710B5034B01001868EA
:1031900000F00EF810BDC046D802002010B5034B59
:1031A0000100186800F004FE10BDC046D8020020DF
:1031B000F0B557464546DE464E46E0B50D000B35A8
:1031C00083B00700162D00D89FE007239D4300D54C
:1031D000C4E0A94200D9C1E000F096FAF823FF3319
:1031E0009D4200D889E2680A00D1BBE0042800D9DA
:1031F00064E138239846A80980443930C100C94E9B
:1032000071180839CC68A14219D0032362689A4327
:103210001300521B0F2A00DDAAE0002A00DB88E021
:1032200003239C4608E06246636893435A1B0F2AB7
:1032300000DD9DE0002A7CDAE468A142F3D132008F
:1032400034690832944200D18BE1032361689943C9
:103250008946491B0F2900DD70E172613261002946
:1032600000DB87E0B04A4B46914500D932E1DB08EC
:10327000FF3A9910FF3A8A40DB0071689B190A43B4
:1032800099687260E360A1609C601300CC600121CA
:103290008210914099426FD80B4205D1032290438E
:1032A000490004300B42FBD003239846C3009946E3
:1032B000B144CC4682466346DC68A44507D152E15E
:1032C000002A00DB61E1E468A44500D14BE14246FD
:1032D000636893435A1B0F2AF2DD0120804661196F
:1032E00005436560A068E5680836C560A86040468B
:1032F000F160B16010434860CE608E603800E250EB
:1033000000F004FA2000083021E0102926D8380007
:1033100000F0FAF9102518230220824EF3181A0043
:103320005C68083A944200D129E1032362689A4319
:103330001300E268A168CA6091600122E31859682D
:1033400038000A435A6000F0E1F92000083003B069
:103350003CBC90469946A246AB46F0BD0C230020EB
:103360003B60F4E780213F2340208900984646E7F0
:10337000404664E74B46E0E70323B46862689A433B
:103380009046AA4203D3531B0F2B00DD88E0230095
:103390004344664A0193664B93469A4692681B687B
:1033A000EB18013200D161E1624A944663441B0B81
:1033B0001B0300930099380000F0AAF9030081462E
:1033C000013362D0019B834200D9F9E053465B6828
:1033D000009A9C46534662445A60019B1100834206
:1033E00000D14FE15B469B68013300D166E14B465B
:1033F000019A9B1A59185346596007234A461340AD
:1034000000D11EE1082189464B49D21A9144CB1ABA
:10341000009A38004A441105090D5B1A19009B46B1
:1034200000F076F9431C00D13CE14B46C01A012361
:103430005844184353465B685B441900534659602F
:103440004B46B3605860B44213D043460F2B00D8AC
:10345000E2E04346072260680C3B9343063A024091
:1034600005201A436260E218506090600F2B00D96B
:103470001CE15346DB6A994201D95346D96253464F
:103480001B6B994201D9534619630323B4686268E0
:103490009A43531B954200D9C1E00F2B00DCBEE0DC
:1034A0000122290013431143651961603800B5609A
:1034B0006B6000F02BF92000083048E7142873D91E
:1034C000542800D9B2E06E239846280B80446F3010
:1034D000C10094E65A0A042A6CD9142A00D9C8E01B
:1034E00011005C325B31D20008235B429C46B2186B
:1034F000944463469A6803239846944500D1A3E018
:10350000434651689943894500D38DE092689445BC
:10351000F6D16346DA6873686146E260A160946040
:10352000CC60B4E608070020FF010000080B002073
:10353000540C00200F100000081000000123601937
:103540001D43656070613061C26082601A004B4645
:103550000A4342603800E15000F0D8F820000830FB
:10356000F5E6736893E608239B46073BDC449B46DD
:10357000DA4443465246134200D09CE636E0DC680B
:103580000230A34200D15AE6CFE60122E31859687F
:1035900038000A435A60E368A268D3609A6000F07A
:1035A000B5F820000830D2E65B23984680445C30B2
:1035B000C10024E69A09110039323831D20093E76C
:1035C000B44200D061E753465B68009A9C4653467C
:1035D000624411005A6005E708235B429C46E144BF
:1035E0004B469B680138994500D084E0434603422E
:1035F000F2D173688B4373604900994200D9BBE6EE
:10360000002900D1B8E650460B4200D04EE64900F2
:1036100004300B42FBD049E601234A465360380090
:1036200000F074F8002092E6944672E7AA235B004B
:10363000984211D8DD3B9846E80B80447830C100B1
:10364000DDE580235B01E3E68910023B8B40726875
:103650001343736062465FE72A4B98421CD87C2371
:103660009846A80C80447D30C100C8E51033009313
:10367000A0E6542A26D84B461A0B11006F326E3141
:10368000D20031E71B0500D0ACE60120009BB268F8
:10369000434403435360ECE6FE217E237F208900F0
:1036A0009846ACE5002301209B46C3E62100380084
:1036B000083100F07DFB53465968DAE65B464A461E
:1036C0009A609AE6AA2149008A4206D84B46DA0B4C
:1036D000110078327731D20006E70A498A4206D8CB
:1036E0004B469A0C11007D327C31D200FCE6FE2262
:1036F0007E219200F8E673687EE72B00E808083325
:103700000BE6C046540500007047C0467047C046EF
:10371000002370B5064C050008002360FEF7F8FF93
:10372000431C00D070BD2368002BFBD02B60F9E751
:103730007410002010B5830725D00378002B24D007
:103740000300032102E01A78002A1AD001330B4249
:10375000F9D119680E4A0F4C8A188A43224206D1C1
:10376000043319680A4A8A188A432242F8D01A0098
:103770001B78002B03D0013211780029FBD1101ADD
:1037800010BD181AFCE70300E3E70020F8E7C04685
:10379000FFFEFEFE80808080F8B506000D0014005C
:1037A000002802D0836B002B4ED0A369A3600C23AA
:1037B000E05E81B20B073CD52369002B39D0FF2294
:1037C000EFB2154080229201114215D02268616942
:1037D000D31A8B421BDA0133A1680139A160511C55
:1037E0002160177062699A421AD0A389DB0701D55C
:1037F0000A2D15D02800F8BD0243616EA281144A3B
:103800000A40626661692268D31A8B42E3DB2100B9
:10381000300000F03DF9002808D122680123DBE7E1
:103820002100300000F034F90028E3D001256D427A
:10383000E0E72100300000F019F80028F6D10C2351
:10384000E05E236981B2BAE700F03AFAADE7C0461C
:10385000FFDFFFFF10B5044B0A001B6801001800D2
:10386000FFF79AFF10BDC046D8020020334B70B559
:10387000050018680C00002802D0836B002B3CD098
:103880000C23E25E93B219070DD52169002915D0EA
:10389000DA0721D50023A360636900205B42A3619E
:1038A000002921D070BDD9063FD55B0728D42169F6
:1038B00008231343A3819BB20029E9D1A0228020D1
:1038C000920080001A408242E2D02100280000F0DD
:1038D000C5FBA3892169DBE700229B0700D462694D
:1038E000A26000200029DDD10C22A35E1A06D9D5E2
:1038F00040221343A3810138D4E700F0E1F9BFE788
:10390000216B00290AD023004033994204D02800BB
:1039100000F04EFA0C23E25E0023236324239A4333
:103920000023216963602160C2E709232B604023E3
:1039300001201A43A2814042B4E7C046D8020020C9
:10394000F0B5C64600B50C23CA5E804693B20C00A3
:10395000190740D480231B0113436268A381002A06
:1039600000DC70E0A66A002E31D042464146156860
:1039700000229BB20A60DA0400D469E0226D5B0782
:1039800006D56368D21A236B002B01D0E36BD21AE1
:103990000023E1694046B047431C3DD0A3893A4A21
:1039A00013400022626022691BB2A3812260DB0403
:1039B00047D44346216B1D60002908D023004033C3
:1039C000994202D0404600F0F3F90023236300201F
:1039D00004BC9046F0BD2669002EF8D0226826600F
:1039E000951B00229B0700D16269A260002D04DCB8
:1039F000EDE736182D1A002DE9DD2B003200E169C4
:103A00004046676AB8470028F3DC40220120A389BA
:103A100040421343A381DBE7434619681D29F4D8CC
:103A20001A4B0122CB409A43EFD1A389164E626014
:103A3000334022691BB2A3812260DB04B9D500297F
:103A4000B7D12065B5E7E26B002A00DD8AE7BEE763
:103A500000220123E1694046B0470200431C02D026
:103A6000A389A66A8BE743461B68002BF8D01D2B61
:103A700001D0162B03D1434600201D60A8E740214A
:103A8000A3890B43A381A3E7FFF7FFFF01004020B9
:103A900070B504000D00002802D0836B002B09D004
:103AA0000C22AB5E0020002B03D029002000FFF782
:103AB00047FF70BD00F004F9F2E7C04610B5011EE3
:103AC00004D0054B1868FFF7E3FF10BD034B044912
:103AD000186800F06DFAF8E7D8020020B04700102F
:103AE000913A00100020704710B5024900F060FACA
:103AF00010BDC046D1410010F8B5DE4657464E46CF
:103B00004546344BE0B5C363B823002403229B0031
:103B1000C45004334568C2500833C218043BC25035
:103B20000600042328002C606C60AC60AB816C66DE
:103B3000EC812C616C61AC61082200215C30FEF7E5
:103B400081FF254B254F9A462B62254BEF62994604
:103B50006B62244BED61AB62B5689846092328007F
:103B6000AB81083B2C606C60AC606C66EB812C61B7
:103B70006C61AC61082200215C309B46FEF762FF5D
:103B800053462B624B466B624346EF62AB62ED617C
:103B9000F56812232800AB81103BEB812C606C6030
:103BA000AC606C662C616C61AC61082200215C30F9
:103BB000FEF748FF53462B624B466B624346AB62AF
:103BC0005B46EF62ED61B3633CBC90469946A2460A
:103BD000AB46F8BDE93A0010E5400010794100100D
:103BE000114100104D4100100020704770B568244D
:103BF0004A1E54430E0021007431FFF7D9FA051E06
:103C000009D000232200036046600C30A8606832AF
:103C10000021FEF717FF280070BDC046214B70B58C
:103C20001D680600AB6B002B2DD0B8239B009C4673
:103C300065446B68AC68013B03D51FE06834013B09
:103C40001CD30C21625E002AF8D10123002520003C
:103C50005B42E3810233A38165662560A5606560F0
:103C600025616561A561082200215C30FEF7EAFE4E
:103C7000256365636564A564200070BD286800281D
:103C800005D00500D5E72800FFF736FFCDE7042172
:103C90003000FFF7ABFF28600028F2D10C2300248E
:103CA0003360E9E7B047001010B5034B03491868CB
:103CB00000F07EF910BDC046B0470010D1410010A1
:103CC000836B10B5002B01D1FFF716FF10BDC04666
:103CD0007047C0467047C0467047C0467047C046F0
:103CE00010B5034B0349186800F040F910BDC046F9
:103CF000D8020020E93B001010B5034B03491868B7
:103D000000F034F910BDC046D8020020E53A00109A
:103D1000F8B50C000600FFF7F7FC204FBB685D68A4
:103D200003239D431E4B2C1B9C466444240B1D4BBC
:103D3000013C24039C4207DD00213000FFF7E8FC32
:103D4000BB685B19984204D03000FFF7DFFC00200D
:103D5000F8BD61423000FFF7DBFC431C0DD00122AF
:103D6000BB682D1B15435D600F4B30001A68141B98
:103D70001C60FFF7CBFC0120EAE700213000FFF7D1
:103D8000C7FCBA68831A0F2BDEDD08490968401AA0
:103D90000549086001210B435360D5E7080700205F
:103DA000EF0F0000FF0F0000580C0020100B002048
:103DB000F8B504000D1E3CD0FFF7A6FC2900083919
:103DC00048680123050003269D434A199C46614F1C
:103DD0005368B343BE68B24256D06646536006424B
:103DE0000AD13E0008680836091A2D188868B042C2
:103DF00065D0CE68C660B0600120D61876680642ED
:103E000033D0554B284348604D519D4212D8ED08A0
:103E1000FF3BAA10FF3B93407A68ED0013437B60A1
:103E2000EF19BB68CF608B60B960D9602000FFF7E5
:103E30006DFCF8BD680A042850D8A8090200393082
:103E40003832C000381808388368032698424CD0AE
:103E50005A68B243954230D29B689842F8D1C36801
:103E6000CB6088609960C160E0E7ED183B4E9368D5
:103E7000B34242D0D2682843DA609360364B486040
:103E80004D519D42D6D8C2E76246EB18024206D198
:103E90000A68891A88689B18CA68C2609060012203
:103EA0001A434A602E4AB96012689342BED32D4B22
:103EB00020001968FFF72CFFB8E71800CFE7664627
:103EC000D018406830423FD190685D19D368C36014
:103ED000986063462B434B604D51A7E7142814D8D4
:103EE00002005C305B32C000ACE7012392109340CB
:103EF0007A6813437B600300B2E72843D960996076
:103F0000CB608B6048604D5190E7542805D8280B52
:103F100002006F306E32C00094E7AA225200904235
:103F200005D8E80B020078307732C0008AE70E4AE5
:103F3000904205D8A80C02007D307C32C00081E799
:103F4000FE207E2280007DE763462B434B60156098
:103F50006CE7C04608070020FF01000010070020A2
:103F6000140B0020540C002054050000B823F0B5B9
:103F7000C6469B00C71800B588460026002F13D000
:103F80007B68BC685D1E0CD4A389012B06D90E2268
:103F9000A35E013302D02000C04706436834013DD0
:103FA000F2D23F68002FEBD1300004BC9046F0BD48
:103FB000F8B54746CE4680B5B8278046BF0047448F
:103FC00089460026002F14D07B68BC685D1E0DD486
:103FD000A389012B07D90E22A35E013303D0210050
:103FE0004046C84706436834013DF1D23F68002F80
:103FF000EAD130000CBC90469946F8BD70B50C0073
:104000001E000E23C95E90B01500002915DB01AA21
:1040100000F02EF9002810DBF022029B1202134060
:104020000D4A8020944663445A42534133608023B2
:10403000DB002B60000110B070BD00233360A3894A
:104040001B0603D5402300202B60F4E78023DB0010
:104050002B600020EFE7C04600E0FFFF70B58B89C2
:1040600082B005000C009B0707D523004333236073
:1040700023610123636102B070BD01AB6A46FFF7A3
:10408000BDFF009906002800FFF792F800281CD019
:104090008022134BEB63A38920601343009A1BB269
:1040A0006261019AA3812061002A02D13343A38176
:1040B000E1E70E23E15E280000F0EEF800280CD0C6
:1040C0000122A38913431BB2F0E70C22A35E9A05D9
:1040D000D1D402221343A381C7E70C22A35EE5E7F4
:1040E000E93A001070B50C000E25495F00F0FAF8AF
:1040F000002803DB236D1B18236570BDA389024ACA
:104100001340A381F9E7C046FFEFFFFF002070478F
:10411000F8B516001F000C228B5E05000C00DA05B6
:1041200007D50E23C95E0022022300F0C7F80C2237
:10413000A35E054A28001340A38132000E23E15EEE
:104140003B0000F01FF8F8BDFFEFFFFF70B50C005B
:104150000E25495F00F0B2F8431C06D08023A289E7
:104160005B011343A381206570BDA389014A1340FD
:10417000A381F9E7FFEFFFFF10B50E23C95E00F042
:1041800015F810BD70B50500080011000022064C9E
:1041900022601A00FEF7A8FD431C00D070BD236802
:1041A000002BFBD02B60F9E774100020002370B5C2
:1041B000064C050008002360FEF7ECFD431C00D010
:1041C00070BD2368002BFBD02B60F9E77410002032
:1041D00070B505000C1E08D0002802D0836B002BA0
:1041E00031D00C22A35E002B02D10026300070BD1E
:1041F00021002800FFF7A4FBE36A0600002B04D08F
:10420000E16928009847002820DBA3891B0620D4F9
:10421000216B002908D023004033994202D02800A6
:10422000FFF7C6FD00232363616C002904D028003A
:10423000FFF7BEFD00236364FFF74AFD0023A3815F
:10424000FFF748FDD2E7FFF73BFDCAE701267642BC
:10425000DBE721692800FFF7ABFDD9E710B5034B79
:1042600001001868FFF7B4FF10BDC046D802002057
:10427000002370B5074C0500080011002360FEF70D
:1042800091FD431C00D070BD2368002BFBD02B6038
:10429000F9E7C04674100020002370B5064C0500F5
:1042A00008002360FEF782FD431C00D070BD236828
:1042B000002BFBD02B60F9E77410002070B50500CF
:1042C000080011000022064C22601A00FEF766FD6D
:1042D000431C00D070BD2368002BFBD02B60F9E796
:1042E0007410002070B50500080011000022064C73
:1042F00022601A00FEF7B0FC431C00D070BD23689A
:10430000002BFBD02B60F9E774100020F8B5C046F5
:1043100001B40248844601BC604700BF750100201B
:1043200001B40248844601BC604700BF9D010020E3
:1043300001B40248844601BC604700BFC1000020B0
:10434000AE200040A1A81FC8D300DA02D580D9F161
:10435000DB3081FFA4A68D142EAF00002C45001089
:104360003C4500104C4500105845001068450010B1
:1043700078450010884500109845001008005250FC
:104380001A520A0006005250197CA0B6F0440010E0
:1043900000000000000000001E28488848281E0079
:1043A000FE9292929292FE007E82828282828200AD
:1043B000FE82828282827E00FE929292929292008D
:1043C000FE90909090808000FE8282828A8ACE0049
:1043D000FE1010101010FE00000000FE0000000093
:1043E000848282FC8080800000FE101028448200BD
:1043F000FE02020202020200FE4020102040FE00E7
:10440000FE4020100804FE007C82828282827C00B2
:10441000FE888888888870007C8282928A867E00E6
:10442000FE8888888C8A700062929292920C0000BA
:10443000808080FE80808000FC0202020202FC007C
:10444000F00804020408F000FE0408100804FE004E
:1044500000824428284482008040201E20408000A2
:1044600082869AA2C28200007C82829282827C0032
:10447000000042FE020000000C9292929262000044
:104480009292929292926C00FC04041E040400002A
:10449000F2929292920C0000FC12121212120C0074
:1044A000808080868CB0C0006C92929292926C0058
:1044B000609090909090FE0048656C6C6F2C20533B
:1044C000534431333036204F4C4544206469737077
:1044D0006C617921204C6F6F6B206174206D7920A5
:1044E00072617370626572726965732E2E000000CE
:1044F00053534431333036204F4C45442064726965
:1045000076657220493243206578616D706C652054
:10451000666F722074686520526173706265727292
:1045200079205069205069636F00000041206C6F52
:104530006E672074696D652061676F0020206F6E63
:1045400020616E204F4C4544200000002020206454
:104550006973706C61790000206661722066617217
:1045600020617761790000004C69766564206120E4
:10457000736D616C6C000000726564207261737011
:104580006265727279000000627920746865206E3D
:10459000616D65206F660000202020205049434F48
:1045A0000000000000000000FFFFFFFFFFFFFF7F93
:1045B000486172647761726520616C61726D20255B
:1045C0006420616C726561647920636C61696D65FA
:1045D0006400000048617264206173736572740046
:1045E0000A2A2A2A2050414E4943202A2A2A0A0010
:1045F0000A0000004F7574206F66206D656D6F7244
:104600007900000006005250BBFF3CB6484600103F
:1046100006005250E182887F30460010060052505A
:10462000D3F075422846001052656C6561736500D1
:10463000626F6F74325F773235713038300000004E
:10464000312E352E310000007069636F00000000CC
:10465000737364313330365F693263004A756E209C
:1046600031312032303234000D0A00000600525041
:1046700053B4F4A198460010080052509200000074
:104680005541525420737464696E00005541525470
:10469000207374646F7574005541525420737464B0
:1046A000696E202F207374646F75740000202020C1
:1046B00020202020202028282828282020202020D2
:1046C00020202020202020202020202020881010A2
:1046D00010101010101010101010101010040404FE
:1046E00004040404040404101010101010104141BC
:1046F00041414141010101010101010101010101AA
:1047000001010101010101011010101010104242BD
:104710004242424202020202020202020202020279
:104720000202020202020202101010102000000019
:104730000000000000000000000000000000000079
:104740000000000000000000000000000000000069
:104750000000000000000000000000000000000059
:104760000000000000000000000000000000000049
:104770000000000000000000000000000000000039
:104780000000000000000000000000000000000029
:104790000000000000000000000000000000000019
:1047A0000000000000000000000000000000000009
:0847B000E002002043000000BC
:1047B8007C43001084430010AC020010A0020010DB
:1047C80094020010044600108802001010460010E1
:0C47D8001C4600106C46001078460010D3
:1047E400F8B54746CE46160080B504001F0002689F
:1047F400EFF3108072B61368002BFCD0BFF35F8F09
:104804000423E356002B3EDB19000023984623685B
:10481400BFF35F8F00221A6080F310884346002B99
:1048240008D1D0231B061B7849B25BB299460025F8
:10483400994210D140460CBC90469946F8BD236875
:10484400BFF35F8F1D6081F310883000390000F0E2
:1048540037F80028EED12268EFF3108172B613689E
:10486400002BFCD0BFF35F8F23797F2BE7D94B4616
:1048740023712368BFF35F8F00221A6081F31088CD
:1048840001239846D6E7D0231B061B682371012316
:104894009846BCE70268EFF3108172B61368002BE8
:1048A400FCD0BFF35F8FFF2303710368BFF35F8FF7
:1048B40000221A6081F3108840BF70477047C046D9
:1048C40001B40248844601BC604700BFC51500100E
:1048D40000000E7EFEFFFFFFFFFFFEFEFCF8FCFE65
:1048E400FEFFFFFFFFFFFE7E1E00000080E0F8FDDC
:1048F400FFFFFFFFFFFFFFFFFFFFFFFFFFFFFFFDC6
:10490400F8E08000001E7FFFFFFFFFFFFFFFFFFFB7
:10491400FFFFFFFFFFFFFFFFFFFFFFFF7F1E000002
:104924000003070F1F1F3F3F7FFFFFFFFF7F7F3FF6
:104934003F1F1F0F070300001000000000000000CD
:104944000000010000000000000000000000020060
:104954000000000000000000000003000000000050
:10496400000000000000FF000000000001B54868DE
:1049740001318E460047704609380149884701BD18
:10498400AD0E00107C02002000000000380B002057
:10499400C80C00200000000000000000D80C00201B
:1049A40000000000000000001000000000000000F3
:1049B400503300004C3300005433000052330000E5
:1049C4004D5300004D4300005334000043340000B5
:1049D400F52D001000000000412E0010D92E00100B
:1049E400000000000001000000400440000000003E
:1049F400AC46001000000000E002002000000000AF
:104A040000000000CC050020340600209C06002095
:104A14000000000000000000000000000000000092
:104A24000000000000000000000000000000000082
:104A340000000000B4470010000000000000000067
:104A44000000000000000000000000000000000062
:104A54000000000000000000000000000000000052
:104A64000000000000000000000000000000000042
:104A74000000000000000000000000000000000032
:104A84000000000000000000000000000000000022
:104A94000000000000000000000000000000000012
:104AA4000000000000000000010000000000000001
:104AB4000E33CDAB34126DE6ECDE05000B000000C6
:104AC40000000000000000000000000000000000E2
:104AD40000000000000000000000000000000000D2
:104AE40000000000000000000000000000000000C2
:104AF40000000000000000000000000000000000B2
:104E340008070020080700201007002010070020A2
:104E44001807002018070020200700202007002052
:104E54002807002028070020300700203007002002
:104E640038070020380700204007002040070020B2
:104E74004807002048070020500700205007002062
:104E84005807002058070020600700206007002012
:104E940068070020680700207007002070070020C2
:104EA4007807002078070020800700208007002072
:104EB4008807002088070020900700209007002022
:104EC4009807002098070020A0070020A0070020D2
:104ED400A8070020A8070020B0070020B007002082
:104EE400B8070020B8070020C0070020C007002032
:104EF400C8070020C8070020D0070020D0070020E2
:104F0400D8070020D8070020E0070020E007002091
:104F1400E8070020E8070020F0070020F007002041
:104F2400F8070020F80700200008002000080020EF
:104F3400080800200808002010080020100800209D
:104F4400180800201808002020080020200800204D
:104F540028080020280800203008002030080020FD
:104F640038080020380800204008002040080020AD
:104F7400480800204808002050080020500800205D
:104F8400580800205808002060080020600800200D
:104F940068080020680800207008002070080020BD
:104FA400780800207808002080080020800800206D
:104FB400880800208808002090080020900800201D
:104FC4009808002098080020A0080020A0080020CD
:104FD400A8080020A8080020B0080020B00800207D
:104FE400B8080020B8080020C0080020C00800202D
:104FF400C8080020C8080020D0080020D0080020DD
:10500400D8080020D8080020E0080020E00800208C
:10501400E8080020E8080020F0080020F00800203C
:10502400F8080020F80800200009002000090020EA
:105034000809002008090020100900201009002098
:105044001809002018090020200900202009002048
:1050540028090020280900203009002030090020F8
:1050640038090020380900204009002040090020A8
:105074004809002048090020500900205009002058
:105084005809002058090020600900206009002008
:1050940068090020680900207009002070090020B8
:1050A4007809002078090020800900208009002068
:1050B4008809002088090020900900209009002018
:1050C4009809002098090020A0090020A0090020C8
:1050D400A8090020A8090020B0090020B009002078
:1050E400B8090020B8090020C0090020C009002028
:1050F400C8090020C8090020D0090020D0090020D8
:10510400D8090020D8090020E0090020E009002087
:10511400E8090020E8090020F0090020F009002037
:10512400F8090020F8090020000A0020000A0020E5
:10513400080A0020080A0020100A0020100A002093
:10514400180A0020180A0020200A0020200A002043
:10515400280A0020280A0020300A0020300A0020F3
:10516400380A0020380A0020400A0020400A0020A3
:10517400480A0020480A0020500A0020500A002053
:10518400580A0020580A0020600A0020600A002003
:10519400680A0020680A0020700A0020700A0020B3
:1051A400780A0020780A0020800A0020800A002063
:1051B400880A0020880A0020900A0020900A002013
:1051C400980A0020980A0020A00A0020A00A0020C3
:1051D400A80A0020A80A0020B00A0020B00A002073
:1051E400B80A0020B80A0020C00A0020C00A002023
:1051F400C80A0020C80A0020D00A0020D00A0020D3
:10520400D80A0020D80A0020E00A0020E00A002082
:10521400E80A0020E80A0020F00A0020F00A002032
:10522400F80A0020F80A0020000B0020000B0020E0
:10523400FFFFFFFF0000020000000000000000006C
:10524400352A0010F5270010B52800107529001024
:04525400350300100E
:04000005100001E9FD
:00000001FF
